:020000040000FA
:2000000008070010E90B0000A50A0000A70A0000000000000000000000000000000000006D
:20002000000000000000000000000000B30A00000000000000000000B50A0000B70A000083
:2000400000000000C30A0000CF0A0000DB0A0000E70A0000F30A0000FF0A00000B0B000008
:20006000170B0000230B00002F0B00003B0B0000470B0000530B00005F0B00006B0B000020
:2000800000000000770B0000850B0000930B0000A10B000000000000000000000000000004
:2000A000AF0B000000000000BD0B0000000000000000000000000000CB0B0000D90B000004
:2000C0000348854601F032F900480047D500000008070010D8B072B6F8480068579050A834
:2000E000808BF749884210D050A8808B00280CD001204003076800BF87F3088800BF014662
:20010000486800900098804700BF002000F07FFB0020EC490870EFE1EB4840690121490211
:20012000084228D050A8808BE54988420DD1012040030768384680F3088800BF0121490323
:20014000486800900098804715E00020DD490870012000F0A0FB012000F059FB05E0BB207C
:20016000DA490860012000F088FAD7484069012149020842F3D199E1D24800785A2825D09B
:20018000022000F088FB022000F041FB5A20CD4908701720012189074860FF2048300860E4
:2001A0003F208860062001218140C94A116000BF00240020C7490870C7490870C7490870D0
:2001C000C7490870C7490870C7490880BB20BF49086050A8808BBA49884203D0C048007809
:2001E000BD280BD100F08AF900205790BD490870BB4908700621BD4800F07AFBBA480088AF
:20020000401E0004000CB849088008D105200007006AFF210131884305210907086201209A
:20022000800700680421084246D008078068C007C00F41D0012081078860800700694006E5
:20024000400E17A9085517A8005D332148404006400E17A9085517A8005D3A282AD10520EC
:200260000007006AFF2101310840000A07D005200007006A884305210907086208E0052084
:200280000007006AFF21013108430521090708620020C04394490880002C0BD017A8005D05
:2002A00010A90877002017A9085500240690059000250490601CC4B210A8007F3A287CD1E9
:2002C000092C7ADB29D1082217A9013107A800F06FFB6846007F0690069840000D30C0B225
:2002E00004906846407F01906846817F0175417F4175C57F069820280FDD002400200690E2
:20030000049005900025062178480C3000F0F0FA082117A8013000F0EBFA04988442CED1A3
:200320000498C01EC0B2039017A9013107A8039A00F03EFB03984010039000200290002681
:2003400010E007A8815D02980818C0B20290FC20064205D007A8815D0198081A07A9885554
:20036000701CC6B203988642EBDB5E480078002808D1002D06D1012149030598884201D285
:2003800001200290EF2D03D0012D01DD042D72D1029800286FD1A01E17A9085C0D286AD1E7
:2003A000601E085C0A2866D106215048801D00F09FFA082117A8013000E075E000F098FA3D
:2003C000002D19D1059880B205904648007800280CD00121090405980843059037490598CF
:2003E000884203D1002108A80170417008A9069A059800F0F3F851E0EF2D03D1BD20384924
:2004000008704BE0042D04D108A840783549087044E0012D42D100F0E2FA002804D1062180
:20042000334800F065FA39E006213048801D00F05FFA30485790022257A9204800F0CEF8B3
:20044000FF2616E0012000F018F9BB201F49086000F060FA002801D1701EC6B2002E08D163
:200460000A2000F00AF95520184908600A2000F004F9E7E7FFE70298012805D106211B4833
:20048000123000F035FA04E0062118480C3000F02FFA082117A8013000F02AFA00240020CA
:2004A000069004900590002500F034FA064840690121490208421FD15EE60000C0FF010098
:2004C000BABA00000400001000C002400000034000E100E00500001006000010070000104C
:2004E000020000100300001000000010741300006E130000BFBF00000EE6000070B5022501
:200500002C4607E0BB205B490860204600F0A6FE601CC4B2202CF5DB70BD30B503460C46E6
:20052000002107E05D5C605CA84201D0012030BD481CC1B29142F5DB0020F8E7FFB581B017
:200540000C461D46002D02D1012005B0F0BD002621E00198002809D1002704E0E15D0398BD
:20056000C155781CC7B2AF42F8D309E020462A46039900F088FE00900098002800D008E0C3
:20058000EAB220460399FFF7C8FF002800D104E000BF701CC6B2032EDBDB00BF032E01DBAD
:2005A0000120D2E70020D0E770B505460E461446002C01D1012070BD30190121490488429E
:2005C00001D30120F7E723462A4631460020FFF7B5FF012800D1EEE70020ECE7F7B5A2B06E
:2005E0000446154600200190002D02D1012025B0F0BD601901214904884201D90120F6E778
:2006000033E0BB201B4908600198401C80B209150190884201DD0120E9E767067F0E002F88
:2006200002D08020C61B00E08026B54200D22E46E109C901802202A8FFF7B6FF6106490E3B
:2006400002AA88183246239900F05EFEE109C901802302AA0120FFF771FF012800D1C6E79D
:20066000A419239880192390AD1B002DC9D10020BDE7000000000340704700210EE0002238
:2006800006E000BF00BF00BF00BF00BF531C9AB2FF2314339A42F4DB4B1C99B28142EEDBAC
:2006A000704710B50446C020C0430521090708600320000508610020486101204007886049
:2006C0000020C860C020C04388610012C86100208862C8624862401E0863486300207F4991
:2006E000086005210907C863401E7C4948600020086205200007C069202188430521090745
:20070000C8610846006A20218843052109070862002073490860022C78D1052000070068FD
:20072000E10308430521090708600846006821048843052109070860084680682106084300
:2007400005210907886008468069E10388430521090788610846C069E1018843052109071C
:20076000C8610846006AE101884305210907086282205C49086373204001086200200863D0
:2007800005200007406A0F21090708430521090748620846C0690F210907084305210907E0
:2007A000C8610846C06B5049084305210907C8630846406B4C4908430521090748630F2069
:2007C000464908620520FFF758FFDB20444908601F2088600120C8602021414820300173C0
:2007E000817370218174C17420210175E021417570218175C1750176C021417630218176C8
:200800007021C17650210177E021417710BD10B50446002C04D0012C22D0022C38D10FE04D
:20082000822030490863FF208860401DC861712040010862FF20E13048610020086328E0FD
:200840008220284908630846C069FF21053108432449C861002008632046FFF722FF18E06C
:200860008220204908630846C069FF21053188431C49C861002008630620012181401B4AE3
:20088000116000BF2046FFF70CFF00F015FD00E000BF00BF10BD10B50446002C04D0012C58
:2008A00003D0022C17D10BE016E082200D4908630021084600F0A6FB00200A4908630BE042
:2008C0008220084908630121022000F09BFB00200449086300E000BF00BF10BD400000505D
:2008E0000080044000400340FF3F000080E100E070B5024600200AE0145C644B1D781B7874
:200900005B1C624E3370624B5C55431CD8B28842F2DB70BD5F480078002804D05D480078CA
:20092000401E5C4908705C4800785849097888422BD00120800700680221084203D048079A
:200940008068084203D15348007800281BD10220410788604E4850490978405C33214840F0
:200960004B494D4A1278885408464B490978405C01218907C86048480078401C46490870A2
:20098000FF2044490870FF2070470020FCE70146F0230B401A46302A02D18B1AD8B206E013
:2009A000402A03D10B46373BD8B200E000207047F7B505460C46029846100DE02078641CB7
:2009C000FFF7E5FF07012078641CFFF7E0FF381828706D1C701EC6B2002EEFD1FEBD38B53B
:2009E0002E48837FC47F00200090002109E0BB202B4D28600A7868460088801885B200958B
:200A0000491C012040048142F1D32448857F68460088401B85B200952048C57F68460088D6
:200A2000401B85B200950020057F68460088401B85B200950020457F68460088401B85B2E2
:200A400000950020857F68460088401B85B200950020C57F68460088401B85B20095684611
:200A60000088BF3085B2009568460088BF3085B2009568464078984205D168460078A04224
:200A800001D1012038BD0020FCE7000006000010080000100700001005000010E0FF010031
:200AA00000000340704710B501214903CC68A04710BD7047704710B501214903CC6BA04762
:200AC00010BD10B5012149034C6CA04710BD10B5012149038C6CA04710BD10B50121490398
:200AE000CC6CA04710BD10B5012149030C6DA04710BD10B5012149034C6DA04710BD10B545
:200B0000012149038C6DA04710BD10B501214903CC6DA04710BD10B5012149030C6EA04706
:200B200010BD10B5012149034C6EA04710BD10B5012149038C6EA04710BD10B50121490333
:200B4000CC6EA04710BD10B5012149030C6FA04710BD10B5012149034C6FA04710BD10B5DE
:200B6000012149038C6FA04710BD10B501214903CC6FA04710BD10B50121490384204458C3
:200B8000A04710BD10B50121490388204458A04710BD10B5012149038C204458A04710BD47
:200BA00010B50121490390204458A04710BD10B501214903A0204458A04710BD10B50121D8
:200BC0004903A8204458A04710BD10B501214903B8204458A04710BD10B501214903BC2047
:200BE0004458A04710BD00000F4880470F480047FEE7FEE7FEE7FEE7FEE7FEE7FEE7FEE7C1
:200C0000FEE7FEE7FEE7FEE7FEE7FEE7FEE7FEE7FEE7FEE7FEE7FEE7FEE7FEE7FEE7FEE784
:200C2000FEE7FEE7FEE7FEE779060000C1000000FE4A12685205510F032902D10120C00384
:200C400015E0022902D1E120400310E0002902D1E120C0030BE0012902D1E120800306E05B
:200C6000042902D1E120000401E0E1204004704701460020ED4A127E5207520F06D0012AA9
:200C80000CD0022A12D0032A22D118E0002901D1002201E00122D206104621E0002902D106
:200CA0000122D20600E00022104619E0002902D10122120701E00122D206104610E0002965
:200CC00002D10322D20601E00122D206104607E0002901D1002201E00122D206104600BF1D
:200CE00000BF7047FFB583B007460C461D4600200190002D01D107B0F0BDFFF799FF0646A7
:200D0000E121C903701A8E4223D00BDCC848301A10D0DD214903401A0FD0E1214903401A6C
:200D200029D110E0E121C903401A18D04900401A21D11AE0002001901DE0BE49284600F017
:200D4000CDFA019017E0BC49284600F0C7FA019011E0BA49284600F0C1FA01900BE0B84905
:200D6000284600F0BBFA019005E0B649284600F0B5FA019000BF00BF0198401C0190002029
:200D8000029036E0B048B14948610420086100208861A748864203D168012818486106E0B7
:200DA000AB49304600F09AFA6843A84948610520A649086114E00598012803D138682040F5
:200DC000A04206D10598002807D138682040A04203D104209D4908618DE7BB209D490860F7
:200DE0009A480069012109040842E4D00298401C0290019902988842C4D3042093490861F5
:200E000000BF78E770B506460020FFF731FF924944180120FFF72CFF8F494518E121C90381
:200E2000701A8E4217D006DC8C48301A0BD08910401A22D10BE0E121C903401A11D0490073
:200E4000401A1AD112E000202060286015E000202060286011E00120400420600020286098
:200E60000BE0012040042060286006E005200004206003200004286000BF00BF70BD10B56C
:200E80006A480069102188436849086108460068400840000860724B002280216348FFF75A
:200EA00021FF6F4B0022012109036048FFF71AFF5E4804688014044201D1012010BD002085
:200EC000FCE770B5FFF7DBFF5848056A006A202108435649086205200007C068FF210903AC
:200EE000084305210907C8605048006908218843102108434D4908615A4B00224C494B48EA
:200F0000FFF7F0FE494804684948044202D0C010044203D145480562012070BD4348056229
:200F20000020FAE770B50446002C07D14C4B00220121C9023D48FFF7D5FE17E0012C0CD148
:200F40003A4800680221884338490860464B002261033648FFF7C6FE08E0022C02D1FFF7A2
:200F60008EFF03E0032C01D1FFF7ABFF2F4800680004C50E002C16D1E807C00F13D00F20C7
:200F80002A4948602A48FFF73DFF28480068032108432649086008460069082108432349DD
:200FA0000861002070BD012C0AD10420054207D00E201E4948602948FFF724FF0020F1E772
:200FC000022C0DD1022005420AD00D20174948600846006802210843144908600020E1E7BC
:200FE000032C0DD1102005420AD00D200F49486008460068022108430C4908600020D1E7AD
:201000000120CFE7F8B504460F460848006B00908220064908630846006A03214902084394
:2010200002490862BB200B4908601FE00040034000800000E0DA8A00706D4500D0B2220058
:2010400068591100C0AA0800FFFFFF0000E000E040420F00000003401800800000201C00E7
:20106000C0C62D00A086010010270000494B012210214948FFF736FE464B01222021464839
:20108000FFF730FE002C06D12046FFF74BFF002877D00120F8BD012C16D12046FFF742FF8D
:2010A000002801D00120F5E73B48001F0068012108433949091F0860084600690821084386
:2010C0003549091F08615CE0042C58DA022C05D1FFF7D5FE002801D00120DBE7032C05D1B5
:2010E000FFF7EFFE002801D00120D3E7022C01D1012005E02848001F00694007400F401C49
:201100000546022D00D90425002F06D0012F09D0022F0CD0032F18D10EE0E120C0032E46F7
:20112000464314E0E120C003684346080FE0E120C003684386080AE0E120C0036843C60862
:20114000012D01D1E126760301E00120A2E700BF0120FFF7E7FE3046FFF754FE0E48001F96
:2011600000680C218843B90008430B49091F08602046FFF7D7FE002803D001208AE7012048
:2011800088E7BB20054908600349091F0098086300207FE7581B0000044003400000034015
:2011A00010B504464A48007E4007400F06D001280AD002280ED0032818D111E00121C906A3
:2011C00000220323DB0617E000210122D2060323DB0611E00121C9064A000323DB060BE0AE
:2011E0000121C9060322D206002305E00121C90600220323DB0600BF00BF002C01D110460D
:2012000010BD012C01D10846FAE71846F8E730B589B004460220FFF7C3FF2E4945185A2006
:201220000190029406A901A8A8470698C0B209B030BD30B589B004460220FFF7B1FF2549EC
:2012400045185020019002940020FFF7E0FF06A901A8A8470698C0B209B030BD30B589B08A
:2012600004460220FFF79CFF1A4945185120019002940020FFF7CBFF06A901A8A847069854
:20128000C0B209B030BDF0B589B004460D4616460220FFF785FF0F4947185820019002946D
:2012A000039504960020FFF7B2FF06A901A8B8470698C0B209B0F0BD10B50120FFF770FF1D
:2012C000044605480121C9056118086010BD000000400340011C00000700EDFE30B50B4611
:2012E000014600202022012409E00D46D5409D4205D31D469540491B254695404019154688
:20130000521E002DF1DC30BD03460B439B0703D009E008C9121F08C0042AFAD203E00B7857
:20132000491C0370401C521EF9D27047064C0125064E05E02046E36807C82B4398471034C5
:20134000B442F7D3FEF7C0FE90130000B013000002E008C8121F08C1002AFAD170477047A5
:20136000002001E001C1121F002AFBD170472B3A435345212B3A524459212B3A4F4B2120B6
:201380002B3A424144212B3A46424421CA000000B0130000000000100800000050130000A6
:2013A000B813000008000010000700006013000000000000000000000000000000000000D0
:2013C00000000000000000000000000000000000000000000000000000000000000000000D
:2013E0000000000000000000000000000000000000000000000000000000000000000000ED
:201400000000000000000000000000000000000000000000000000000000000000000000CC
:201420000000000000000000000000000000000000000000000000000000000000000000AC
:020000040000FA
:20200000A8130010794201008142010073DA00000000000000000000000000000000000028
:20202000000000000000000000000000854201000000000000000000874201008942010042
:2020400000000000B742010069DA000011DC00007BDA000097420100DFDE00009B4201008C
:202060009D4201009F420100A1420100A3420100A7420100A542010027DD0000AB42010010
:202080000000000065E00000AF4201005DE10000B3420100000000000000000000000000D5
:2020A0008B420100000000008D4201000000000000000000000000008F42010091420100DC
:2020C0000348854614F0CEFE00480047D5200000A8130010DF484069800600280BDA192629
:2020E0007601304601F0E6F8DB4CBB252560304601F0E0F8256000200AF00EFF00200AF093
:2021000059FF0426D54DEC212878084028702EE0C0060ED402200AF0FFFE09F09AFA287892
:2021200010210843CE4900220A81FB21084028701DE00DF058FF2878C00718D1C848008929
:202140000A2814D102200AF035FF09F02FF901F03EFA02200BF085F809F0B6FA28780121C9
:202160000843FB2108402870BF48BE4941800DF001FF002802D12878C107C9D02878C107E8
:2021800006D1C00604D501200AF014FF09F027F92878C00745D1ADE010F0EEFF6888C107D3
:2021A00004D040084000688009F09EFC6888810604D52021884368800CF03DFF6888810754
:2021C00004D502218843688011F04DFB6888410604D54021884368800DF050FC6888C105E4
:2021E00005D5FF2101318843688012F085FBA878000705D50CF027F8688808218843688096
:202200006888C10604D51021884368800EF0B0FF10F05BFF6888410703D5B043688009F05F
:20222000AFF801F081F9002808D10DF0C9FE002804D18A482030C079C007ADD02878EE217C
:20224000084028708949102008608948E5218162C168884A1140C160DC2181628648C16836
:20226000032212049143C16005242407616AFF2001308143616201200AF0F3FF09F0AFF88B
:202280007E485A21C07A08420DD010F075FF206A402738432062642001F00CF8206AB8433C
:2022A000206210F069FF01200AF084FE002409F0C2F9142000F0FEFF6D4F15E010F05CFF92
:2022C000E520B862112040013861DC20B862642000F0F0FF3869800602D53869800507D55B
:2022E000641CA4B2322C03D20DF057FE0028E5D009F0D9F95A4F0F20B872A5E05A4C594D08
:202300006088A84208D000200AF0ABFF01200AF051FE09F064F86580504D1AE04D4C2068F3
:202320004005400F03280DD001200AF0F5FD8220206314F0A4F8E069B043E061002020630F
:202340000F20B8724448BB21016030BF01600DF081FDA878C006000F03D101F0E5F80028D1
:20236000DCD110F009FF0AF0EEFD454988420DD0384C822020630021012013F002FEE06957
:202380003043E06114F086F8002020636888810704D502218843688011F065FAA8780007B6
:2023A00013D50222374938480CF0DCFF364800210C3881730CF048F80BF045FFA879C00700
:2023C00003D168880821884368806888C10604D51021884368800EF0CBFE10F076FE6888BE
:2023E000C10509D5FF210131884368800CF008F825495A200C3988736888410703D5B0430D
:20240000688008F0BDFF08F0FFFFA879C1071BD0810619D4B97A002916D10121134AC90453
:20242000116069880822914369802021084340084000A8716879E3210840687113490020A4
:20244000487011490C3908720DF0A7FD002800D158E653E700400340000003403003001090
:20246000680B00105A5A00000E00001080E100E080410050F97FFEFF400000504404001058
:2024800040B218006A72000066030010B00A0010F0B591B00422FE4902A800F0F9FF029894
:2024A00014F0F9FAFB4914F0F8F814F033FB0F90F7490422091D02A800F0EAFF029814F06F
:2024C000EAFAF54C214614F0E8F814F023FB0D90EF49042208310BA800F0DAFFEC4904225F
:2024E0000C3109A800F0D4FFE9490422143102A800F0CEFF029814F0CEFA214614F0CDF891
:2025000014F008FB0E90E249042218310CA800F0BFFFDF4904221C310AA800F0B9FF002500
:2025200000200790089005900690039004900024DA4FBB26DA4902A809F0C3F802982D186C
:20254000D74902A8083909F0BCF80299079840180790D34902A8083109F0B3F80298002835
:2025600002DAC043401C02900299059840180590CB4902A8103109F0A4F80298002802DA37
:20258000C043401C02900299039840180390C44902A8091F09F095F8029908984018089099
:2025A000BF4902A80C3109F08CF80298002802DAC043401C02900299069840180690B849F8
:2025C00002A8143109F07DF80298002802DAC043401C02900299049840180490FF202D3070
:2025E00000F068FE3E60FF202D3000F063FE3E60641CE4B2032C9DD30321284613F05CFFD7
:2026000006460321079813F057FF07900321089813F052FF08900321059813F04DFF059066
:202620000321069813F048FF06900321039813F043FF03900321049813F03EFF04900125A7
:202640000F98984F2D04002834D0974C2068002830D10F98B04216D9304614F01CFA064697
:202660000F9814F018FA314614F017F814F084FA00223B4614F0FFF80F2214F0EBF914F0D6
:202680005DFA206016E0304614F005FA06460F9814F001FA314614F000F814F06DFA002202
:2026A0003B4614F0EEF80F2214F0D4F914F046FA281A20600D98002839D07C4880680028FD
:2026C00035D0794C6068002831D107990D98884216D9079814F0DFF906460D9814F0DBF9FC
:2026E000314613F0DAFF14F047FA00223B4614F0C2F80F2214F0AEF914F020FA606016E031
:20270000079814F0C8F906460D9814F0C4F9314613F0C3FF14F030FA00223B4614F0B1F8E9
:202720000F2214F097F914F009FA281A60600E98002839D05D48C068002835D05A4C2069CB
:20274000002831D108990E98884216D9089814F0A2F905460E9814F09EF9294613F09DFF76
:2027600014F00AFA00223B4614F085F80F2214F071F914F0E3F9206116E0089814F08BF90F
:2027800006460E9814F087F9314613F086FF14F0F3F900223B4614F074F80F2214F05AF939
:2027A00014F0CCF9281A20610027BC000BAA105900283CD009A90959002938D03B49611816
:2027C0004B69002B33D0496A002930D003A9095914F071FB05460E4605A809A90059095904
:2027E00014F069FB281A8E41019600900BA805A90059095914F05FFB05460E4603A809A9C3
:202800000059095914F057FB2818714114F06CF904460D460199009814F066F922462B4641
:2028200014F0A0F814F0F8FB04460D4601E000242546002F03D11C4EB068002802D0012F49
:2028400040D06AE0002213462046294614F0A8F90DD80022164B2046294614F01BF8154A76
:20286000154B14F07FF814F069F9B06055E000220F4B2046294614F00DF80E4A0E4B14F0C3
:2028800071F881230022DB0513F052FF16E000006007001000AFE13B8096983E000003406E
:2028A000144100500000F03FEC080010480A00100080664098B597FC746A9F3F14F03EF9E1
:2028C000B0602AE01D4E7069002826D1002213462046294614F064F90DD80022184B2046FA
:2028E000294613F0D7FF174A174B14F03BF814F025F9706111E00022114B2046294613F05C
:20290000C9FF104A104B14F02DF881230022DB0513F00EFF14F012F970617F1CFFB2022FFE
:2029200000D242E7D32003234022044900010CF0B3FD08F0C9FE11B0F0BD0000EC080010F6
:202940000080664098B597FC746A9F3F10B5224CA068C0073AD0E0688100401814F09BF8F1
:202960000921C94313F0D7FE14F006F91B4A1C4B13F081FF00221B4B13F08CFF14F0DEF807
:20298000194980B28883FF2255321849904205D248780A2804D2401C487001E00020487051
:2029A0004A781349032A48780DD3202210434870888C83060AD410438884022224310D4837
:2029C0000CF00EFD02E0DF2210404870606801210843606010BD000000C002407B14AE47BD
:2029E000E17A943F00005940880A0010680B001030030010527100000278FE498A5C0270CC
:202A000002798A5C0271027A8A5C0272027B8A5C027342788A5C4379CB5C4370437ACB5C1A
:202A20004371437BCB5C4372427382788A5C837ACB5C8370827282798A5C837BCB5C8371AE
:202A40008273C27B8A5CC37ACB5CC373C379CB5CC372C378C95CC171C27070470278E64908
:202A60008A5C027002798A5C0271027A8A5C0272027B8A5C0273427B8A5C437ACB5C43733F
:202A80004379CB5C43724378CB5C4371427082788A5C837ACB5C8370827282798A5C837B8C
:202AA000CB5C83718273C2788A5CC379CB5CC370C37ACB5CC371C37BC95CC172C273704736
:202AC000F0B597B0CD49057816954479CA1DF9324F5D135D867A5F40C64BB4469D5D159593
:202AE000C67BB6469E5D149675406F406D462F70169D66465D5D13950F5D965D7D40149FAE
:202B000077407D406E4675701C5D139D6646654012948C5D7646965D744065406E46B570BE
:202B2000169D129C575D764667408C5D159D6E4665406F40F77005791195447A4F5D155D13
:202B4000867B6F409D5DB4461095C678B6469E5D0F9675406F406E463771119D66465D5D7E
:202B60000E950F5D965D7D400F9F77407D406E4675711C5D0E9D664665400D948C5D76461F
:202B8000965D744065406E46B571119D0D9C575D764667408C5D109D6E4665406F40F7719B
:202BA000057A0C95447B4F5D155D86786F409D5DB4460B95C679B6469E5D0A9675406F409D
:202BC0006E4637720C9D66465D5D09950F5D965D7D400A9F77407D406E4675721C5D099DF8
:202BE0006646654008948C5D7646965D744065406E46B5720C9D089C575D764667408C5DCF
:202C00000B9D6E4665406F40F772057B079544784F5D155D86796F409D5DB4460695C67A28
:202C2000B6469E5D059675406F406E463773079D66465D5D04950F5D965D7D40059F774026
:202C40007D406F467D731B5D66468C5D7646049D965D5D4074406540BD73079D7646525D80
:202C6000895D069D5A404D406A40FA731022694613F04CFC17B0F0BDF0B58CB005786049E6
:202C8000AE464E5D5F4A45780B95535D85785E40CB1FF93B0A955F5DC578D41FAC46F93C74
:202CA000655D6F407E406F463E707546665D0B9D4D5D6E400A9D575D65465D5D6F407E40D7
:202CC0006F467E7175465E5D0B9D655D6E400A9D4F5D6546555D6F407E406F46BE72754605
:202CE000565D0B9D5D5D6E400A9D675D65464D5D6F407E406F46FE730579AE464E5D4579E3
:202D00000995555D6E40857908955F5DC579AC46655D6F407E406F463E717546665D099D77
:202D20004D5D6E40089D575D65465D5D6F407E406F467E7275465E5D099D655D6E40089D3A
:202D40004F5D6546555D6F407E406F46BE737546565D099D5D5D6E40089D675D65464D5DDD
:202D60006F407E406F46FE70057AAE464E5D457A0795555D6E40857AAC465F5DC57A069563
:202D8000655D6F407E406F463E727546665D079D4D5D6E406546575D069D5D5D6F407E40FC
:202DA0006F467E7375465E5D079D655D6E4065464F5D069D555D6F407E406F46BE7075462C
:202DC000565D079D5D5D6E406546675D069D4D5D6F407E406F46FE71057B05954E5D477B60
:202DE0000497D55D6E40857BAE465F5DC57BAC46655D09E0DC720100DC730100DC740100DB
:202E0000DC790100DC7701006F407E406F463E73059D049F665DCF5D75467E40575D654629
:202E20005D5D6F407E406F467E70059D049F5E5DE75D75467E404F5D6546555D6F407E4095
:202E40006F46BE71059D049F525DDB5D75465A40635D6546495D6F464B405A40FA72002195
:202E60008B4B6A46545C1C5D4454491CC9B21029F8D30CB0F0BD10B50022835C8C5C63406D
:202E80008354521CD2B2102AF7D310BDFCB500229300C45CCC541C1865785B185D70A57884
:202EA0009D70E478DC70521CD2B2042AF0D304208200019252181346203A157F547FA446D3
:202EC000947FA646D47F860711D10094714C645D704D6646AD5D704F8608BE5D75406D4ED4
:202EE0007746F65DB4466B4F009EBE5DB646167C6E40019D4E55557C664675405D70957CC8
:202F0000764675409D70D27C6240DA70401CC0B22C28CDD3FCBDF0B585B00E4614460023D3
:202F20006D46027899006A54427849194A7082788A70C278001DCA705B1CDBB2042BF0D3BC
:202F400031466846FFF797FF01270A2F03D26846FFF7B6FD02E06846FFF74EFD380181198F
:202F60006846FFF788FF7F1CFFB20B2FEDD3002081006A5C227049194A7862708A78A270DD
:202F8000C978E170241D401CC0B20428F0D305B0F0BDFFB50E46144600236D4602789900F4
:202FA0006A54427849194A7082788A70C278001DCA705B1CDBB2042BF0D33146A03168460C
:202FC000FFF759FF0A276846FFF748FD09E0380181196846FFF74FFF002F02D06846FFF736
:202FE0004BFE38467F1EFFB20028F0D181006A5C227049194A7862708A78A270C978E1705E
:20300000241D401CC0B20428F0D3FFBD70B50D4611050C0E110701D0FF2070BD1F49FFF7BB
:2030200035FF05E02A461D492846FFF774FF10352046641EE4B20028F4D170BD30B50D46B5
:2030400011050C0E110701D0FF2030BD1349FFF71DFF05E02A4611492846FFF79AFF1035EC
:203060002046641EE4B20028F4D130BD10B5044608220B49204613F049FA08220849A0188C
:2030800013F044FA102221462046FFF7BFFF10BDDC730100DC720100DC7A01006007001002
:2030A000070000107548006982B275494B89134201D001207047C20304D54A78D20601D501
:2030C00001207047800304D5C879000701D50120704700207047F8B56A48007B80076FD14E
:2030E000694805240079654D24075A286CD0684966480B6801210068C9044A10984213DA98
:20310000634B5B68984208DA64232B70236A8B432362216A114321620CE0236A8B43236252
:20312000216A1143216205E0236A93432362226A0A432262E988491C89B2E9802A89914203
:2031400042D30021E980A98800293DD0514F524ABB6852691026934205D2FB68934202D261
:203160003B69934204D36980206A304320621EE0474A936898421ADA4148C07C400716D449
:2031800046484078002812D1107E5A2813D0444FB87800F0C7F8142809D2B87800F0C2F888
:2031A000072804D9A8886880206A304320626888002806D008E06980206A30432062F6E751
:2031C00047E0206AB04320622D49C87CC20706D02E4A13682E4AD2689A18002A05DDC00746
:2031E00012D12A48006800280EDC287F42060FD44022104328772B488078012808D1087AEB
:2032000018221043087203E0287FBF2210402877087900060CD4FFF745FF012189030028D6
:2032200003D0206A8843206202E0206A0843206218481D4900888A89202190420AD21B48F8
:203240001B4AC088904204D000206881206A88432062F8BD688900280BD0226A0A43226235
:20326000401E80B268810028F3D1206A88432062F8BD206A88432062F8BD00005804001065
:2032800030030010C80A00100E0000102403001028040010480A00107C040010B00A0010BC
:2032A0000700001044040010800300105A030010FFFF000010B5044609F045FEE1218903C8
:2032C000884212D10022FF2014300BE0002100BF00BF00BF00BF00BF491C89B28142F6D3C9
:2032E000521C92B2A242F1D310BD00200BE0002100BF00BF00BF00BF00BF491C89B27D297A
:20330000F6D3401C80B2A042F1D310BD10B5632801D9002010BD0A2113F0CEF8000140187F
:20332000C0B210BD01090A2200075143000F0818C0B2704770B5044608467649884203D903
:2033400000202070607070BD642113F0B5F805460846FFF7DBFF2070E8B2FFF7D7FF60705C
:2033600070BD70B5044608466B49884205D9002020706070A070E07070BD6649491C13F0E3
:203380009BF805462046FFF7D5FFA9B2A01CFFF7D1FF70BD10B50346D878FFF7C3FF5F4957
:2033A00004464C439878FFF7BDFF5A49491C484324185878FFF7B6FF64214843241818784C
:2033C000FFF7B0FF201810BD10B5002313E00278521CD2B202701407240F092C0DD9921D72
:2033E000D2B2027014092401902C06D960320270401C5B1CDBB28B42E9D310BD01460020D9
:203400000A46303A092A01D8D0B270470A46413A052AFAD83739C8B2704700210A2802D219
:203420003030C1B203E0102801D23730C1B20846704770B503460D46002456080EE028781B
:20344000FFF7DCFF000118706878AD1CFFF7D6FF1978401818705B1C641CE4B2A642EED8F2
:2034600070BD30B505460B4600240EE018780009FFF7D3FF287018780007000FFFF7CDFF2B
:203480006870AD1C5B1C641CE4B29442EED330BD10B50023891805E0CC1A203CE47FC4544F
:2034A0005B1CDBB29342F7D310BD70B504461C4D284600221B4E08E0A35C4340000A1B0636
:2034C000DB0DF35A5840521CD2B28A42F4D3684070BD03E00B78491C0370401C1346521E62
:2034E00092B2002BF6D17047010A0006000C014308467047FF2212040240010E120A114381
:20350000FF221202024012021143000601430846704700000F270000FFE0F50540420F00DD
:20352000FFFF0000E87A0100DA4840698105DA48002902DB0021017001E001210170007833
:20354000704770B504460020D44D0C22424353191B89DE05B60F8E4207D1AA585B065B0E25
:20356000944202D3D218A24204D8401CC0B23A28EBD3FF2070BDCA4A05E00378401C9A183A
:2035800092B2491E89B20029F7D110467047F7B507460C46C24E16E0202C01D3202500E0B1
:2035A00025462A463946BF48029B0BF05BFF2946BC48FFF7E0FF8119B9484042081886B2FB
:2035C0007F19601BC4B2002CE6D13046FEBDF0B585B000200290B448FB22417811404170EE
:2035E0000020049093E06946097C0C204143AB4847586946097C0C225143091849680091D5
:203600006946097C51430918097A4906490E03916946097C514308180089C005860FA3494D
:20362000B0000D5800240FF0A7FDFFF77DFF002873D1012E14D0022E01D0032E21D1009801
:2036400033464119022201A80BF00CFF781932460399FFF79CFF69468988884200D002240E
:203660003346022201A800990BF0FCFE324638460399FFF78CFF69468988884201D00120E7
:203680000443002C02D0012E00D10324012C04D0022C1CD0032C36D133E079193346844883
:2036A000039A0BF0DFFE334681493846039A0BF0E6FE00983346411902227D480BF0D2FE39
:2036C000334602227A4900980BF0D9FE1BE0334639467748039A0BF0C5FE7819334674494C
:2036E000039A0BF0CCFE33460222714800990BF0B9FE00983346401902226D490BF0BFFECB
:2037000001E0012002906946087C401C04906846007C3A2801D266E7FFE70298012804D1C8
:203720006149042248781043487005B0F0BD0FE0027813071B0F092B01D9012070471209DE
:203740001201902A01D901207047401C491EC9B20029EDD10020704710B504460721204651
:20376000FFF7E5FF002801D0012010BD2078592805D86078592802D8A078232801D9012001
:2037800010BDE078062809D82079002806D0312804D86079002801D0122801D9012010BD55
:2037A000002010BDFEB500200290002600240C20214641433948081847680089C1058D0F1B
:2037C00001214902084001903848A900405800900FF0D2FCFFF7A8FE002828D10198C11F4F
:2037E000FF39FA391FD1012D10D0022D01D0032D17D100982B46391802222D480BF032FE2A
:2038000002212B48FFF751FE02900AE02B460222394627480BF026FE02212548FFF745FEE6
:20382000029002983618641CE4B23A2CBFD3052220491F480BF096FD05211D48FFF735FEC7
:203840003018FEBDFEB50025002401277F021A49A0000A5A0092401846887006400E01904C
:203860003E400FF089FCFFF75FFE00280FD1BE4209D10F48019A00990BF074FD0C4801992C
:20388000FFF713FE2D18641CE4B2082CDFD32846FEBD000000C0024006000010E87C01003A
:2038A0005AA50000310D001030030010ACA0010060070010ED0C0000A07F0100FFB5A9B08E
:2038C00016460020119010238622FE49299805F038FA1590FF2817D00101FA4808188179B0
:2038E0008A07920F1492890889001291417B2891C908F54B2C9C1B19FF3321339B78934243
:203900002DD2022A03D004E001202DB0F0BD012B01D00220F9E7ED4A12785A2A1FD0012EB8
:203920000DD1129A382A0AD0129A142A07D0129A042A04D0129A9C2A01D00220E5E7022EF1
:203940000DD1E34A1279120604D405221207126A920302D4129A042A01D00220D5E72C9A6B
:20396000D94C52001419E51DF93527952C9D06277D43D54FFF34ED19FF35073526952C9DB0
:2039800021347D19FF3501352595D14D219420352495D04D23953D46CD4FE035CE4C2295DD
:2039A0002094D219CD4DCE4C1F92012E03D0022E77D00320A9E72A9A012A08D0C427022A79
:2039C00009D0032A6ED0042A6DD003209DE7299805F05BF8F1E3BC4E012B5ED0827B12073A
:2039E000120F149210AA127CD2075DD0129A342A0BD0012337707370227D40231A43B2709E
:203A00000022F270052214923171129A002792103E2A7DD253007B449B885B009F4478009C
:203A20004600780078007800E7030D027800780078007800AB007800F900C401A101DF019C
:203A40007800560578007800260269027800780078007D029702B0027800F3020B031C0344
:203A60007800780078007800780078002D03480378007800CE037800340578004505DF01E7
:203A8000C9025F00DF01DF018D0578007304780078059E05D0057800E605827B120914922D
:203AA000A0E7FDE3FDE3FDE303202EE7874800785A2809D010A8017C3A46481CC0B27754AF
:203AC000411C1491325413E210A8017CF022481CC0B272540122411C14913254F3E710AB46
:203AE000197C0C224C1C14947254027B81687B480BF038FCA878FFF715FC7D2109014118AD
:203B00000E9110AB1A7C0C0A501CC0B2B45400E0F8E3421C149231546878FFF703FC10ABE5
:203B2000197C4A1C149270542878FFF7FBFB10AB1A7C511CC9B2B0544A1C3846D2B2775424
:203B4000511CC9B2B0544A1CD2B27054511CC9B2B054FF244A1CD2B274548021531CDCB26C
:203B6000B154611CC9B230550222481C149072542299C877A7E7027B816858480BF0F2FB5B
:203B800010AB197C0122481CC0B272540221421CD2B23154501CC0B2B1540924411CC9B2A4
:203BA000345404204A1C149270542878FFF7BAFB10AB197C4A1C149270546878FFF7B2FB9B
:203BC00010AB1A7C511CC9B2B054481CC0B27754411CC9B23754481CC0B274540421421C83
:203BE00014923154A878FFF79DFB10AB197C4A1C14927054E878FFF795FB10AB1A7C511C28
:203C0000C9B2B054481CC0B27754411C1491375459E77078012806D02198B1798079814231
:203C200015D0032071E627990120088006222999269812F06BFC25992A9808761F98818AEB
:203C4000FF20013001431F9881822199CF800122244911A80BF086FB10A80079322801D9E3
:203C60003220119014A8009010A805AB052100792C9A04F02AFFFF2811D06846007D4100A7
:203C80004018C2B22198C088401E0101081A1549491C411811480BF065FB00244CE0002095
:203CA00033E610AB197C0922481CC0B272540522411CC9B214913254600020181E90285CE0
:203CC000FF2811E018800100140500100E0000103003001078040010A003001060070010F3
:203CE00014070010470C00002ED0FFF71BFB7D21090140180E9010AF397C030A4A1CD2B233
:203D00007354511C1491B0541E9847197878FFF709FB10A90A7C531C1493B054B878FFF747
:203D200001FB10A90A7C511CCBB2B054FF205A1C1492F054641CE4B26846007D8442B0D351
:203D40007078022808D0D3E0FF22481CC0B27254411C14913254D7E710A8007C0A3870726B
:203D6000C6E08168FD4D012213A80BF0FBFA10A8007B202801D92020139010AB187B4000D6
:203D8000401CC4B2187C411CCAB214923454187D000140198168B01822460BF0E3FA10AB1B
:203DA000187C00191490A3E0027B8168EC480BF0D9FA2878102801D91020287010AB187CFE
:203DC0002A78411CC9B2149132547018691C12F09DFB10AB2878197C4018149088E0027BC6
:203DE0008168DE4CDE480BF0BDFA10AB187D00010019007B8108187C421C14923154002726
:203E000012E010A8007C0621421CD2B214923154B8004119B0180422FFF73AFB10AB187CCE
:203E2000001D14907F1CFFB210A8007D00010019007B8008B842E4D85AE0027B139210AC55
:203E4000217C4B1C149372548168C5480BF08AFA10A8007C10A90A7B3018C149FFF718FBAF
:203E600010A9087C097B40181490EFE30421BC4812F065FB0222BB4902A80BF073FA684640
:203E80000089B949884203D1E87801210843E87005200007016A090103D529780122114343
:203EA0002970006A400103D52878022108432870AE49C88B020703D52A7808231A432A7051
:203EC000000503D52A78102002432A704878800603D5287820210843287010A8007C042218
:203EE00030189F4912F012FB10A9087C001D1490ACE32F706F700BF081FB002803D0287866
:203F000040210843287010A8007C2A7831180A706A784A70801C149098E38168012302223C
:203F20000EA80BF09FFA6846008F12F0B4FD904912F0B3FB079010AB187C0422301807A9BA
:203F400012F0E4FA10AB187C001D14907EE38168012304220CA80BF085FA0C9812F09BFD71
:203F6000834912F09AFB079010AB187C0422301807A912F0CBFA10AB187C001D149065E3BB
:203F80008168012304220CA80BF06CFA0C9812F082FD784912F081FB079010AB187C042269
:203FA000301807A912F0B2FA10AB187C001D14904CE305210122C90209A80BF0D3F908A8E0
:203FC000007900281BD001226B4908A80BF0CAF908A80078C821C73012F06EFA08910B20DA
:203FE0004143654810AB401C0918187C012230180BF0B8F910A9087C401C149026E310A9AE
:20400000097C7754F6E710AB187C0422411C1491325408F083FD0E90FFF766FA0E9010ABB1
:20402000187C022230180EA9FFF71BFA10AB187C001D14900AE3514800795A2806D010A89F
:20404000007C0122411C14913254FFE210A8007C411C14913754F9E244480079000606D5D6
:2040600010A8007C0122411C14913254EEE210A8007C411C14913754E8E2027B8168384820
:204080000BF070F92878282801D92820287010AB187C2A78411CC9B2149132547018691C11
:2040A00012F034FA10A92878097C40181490CDE210AB197C0722481CC0B272540522411CAE
:2040C000C9B214913254701804222D49FFF7E0F910AB187C001DC1B20322481CC0B21490C9
:2040E00072542249C979090703D5411C1491375403E00122411C1491325410AB197C1122C7
:20410000481CC0B272542499431C0978DCB231541620611CC9B230551A484B1CC078DCB211
:204120007054601CC0B214903255144909795A293FD00122411C1491325410AB197C122202
:20414000481CC0B2149072540849301802220A31FFF79EF910AB187C801C15E01880010021
:2041600060070010927800005A5A0000300300100000204100007A44012800000E00001061
:204180002403001044040010C0B20622411C14913254F948FFF7FEF80B9010AB187C042231
:2041A00030180BA9FFF774F910AB187C001D14904CE2411C14913754BFE74BE2007B10ABCC
:2041C0004100187C421C14923154D72106220901EA480BF0C7F810AB187C06223018E7497C
:2041E000FFF73FF910AB187C0C3014902EE210AB197C0922481CC0B272541224411CC9B22D
:20420000149134547018FF210222F9310BF0AAF810AB187C801CC0B2411CC9B2149134547C
:204220007018FF210222FB310BF09CF810AB187C801CC0B2411CC9B2149134547018FF21ED
:204240000222FD310BF08EF810AB187C801CC0B2411CC9B2149134547018FF210222FF312D
:204260000BF080F810AB187C801CC0B20622411CC9B21491325470180422D1010BF072F85E
:2042800010AB187C001DC0B21125411CC9B21491355470188121012289000BF063F802E0F6
:2042A0003CE2F5E117E210AB187C401CC0B20F22411CC9B21491325470180122B0490BF021
:2042C00051F810AB187C401CC0B2411CC9B2149134547018AA490222491C0BF043F810AB7E
:2042E000187C801CC0B2411CC9B214913554701841210122C9000BF035F810AB187C401C6D
:204300001490A3E188E110A90A7C0F23501CC0B2B3541727411CCCB214943754994D286AF2
:2043200012F0B9FB984912F0B8F907903019042207A912F0EBF810AB187C001D1490002464
:2043400010AB187C411CCDB2149537548D48A1000818406912F09FFB8B4912F09EF907901F
:204360007019042207A912F0D1F810AB187C001D1490641CE4B2032CE2D3187C411CCCB29A
:20438000149437547F4D286B12F085FB7E4912F084F907903019042207A912F0B7F810ABA1
:2043A000187C001D1490002410AB187C411CCDB2149537547348A1000818406A12F06BFB97
:2043C000714912F06AF907907019042207A912F09DF810AB187C001D1490641CE4B2032CDC
:2043E000E2D3002410AB187C411CCDB21495375464486100405A12F04EFB634912F04DF99F
:2044000007907019042207A912F080F810AB187C001D1490641CE4B2032CE3D3002410AB42
:20442000187C411CCDB2149537545648A1000818806812F030FB554912F02FF9079070197C
:20444000042207A912F062F810AB187C001D1490641CE4B2032CE2D310A9087C411CCCB208
:20446000149437544748406D12F015FB474912F014F907903019042207A912F047F810AB6A
:20448000187C001D1490E1E02398C0785A2806D010A8007C0122411C14913254D6E010A86E
:2044A000007C411C14913754D0E0E08AC82112F003F80E9010AB187C022230180EA9FEF7EE
:2044C000E7FF10AB187C801C1490BFE010AB187C0321421C14923154284812F030F820987A
:2044E00000785A2803D1A87802210843A8700122274922480AF036FF10A8007C032230187B
:204500001E4912F003F810A9087CC01C14909DE0FFF748F90B90FFF795F90C900B99081847
:204520000B9010AA107C042230180BA911F0EEFF10A9087C001D149088E0A07F5A21084240
:2045400006D010A8007C0122411C149132547DE010A8007C411C1491375477E002220D49B7
:204560000EA80AF0FFFE6846008F0B49884215D10020C0430C9012E0800200106007001093
:2045800005020000480A00100000204100007A44650300006A720000FFFF00000C9004228F
:2045A0000CA9F848FEF774FF10A8007C04223018F44911F0ABFF10A9087C001D149045E0F1
:2045C0000122F14915A80AF0CDFE10A8007D5A2805D010A8007C421C1492375436E010A8DF
:2045E000007C0122411C149132542FE00122E74915A80AF0B7FE10A8007D5A2805D010A882
:20460000007C411C1491375420E010A8007C5A22411C1491325419E0027B139209291AD022
:204620000A2918D0052924D0062922D0122920D0289910AC8B078168207C9B0F30180AF071
:2046400011FF10A9087C097B4018149010A8017C2298C177F1E310AC217C4B1CDDB214959A
:20466000725428998B0781689B0F70190AF0FAFEE7E728998B0781689B0FC2480AF0F2FE6B
:2046800010AB187C1A7B3018BE49FEF701FFD8E70022BF4D01202F706870207D4021084324
:2046A000A870EA701221052014902971B64902226939B8480AF056FEB64810AC0188227CFE
:2046C0000B0A501CC0B2AB540346401C1490E9542299C877BEE70021AD4D01202F70687010
:2046E000207D40221043A870E9701221052014902971A54902226B39A7480AF033FEA648A3
:2047000010AB0288197C140A481CC0B26C540346401C1490EA542299C8779BE72A9A022A18
:2047200002D003202DB0F0BD994E012B0AD0827B1207120F149210AB1A7C1D92920705D4BE
:204740000320EFE7827B12091492F4E772781C92012A04D1727B8A4201D00320E2E7129A0D
:2047600097108B4A0E321B928C4A1A92884A0F3219928A4A921C18923E2F7CD27B007B446F
:204780009B885B009F4477003D0089007700770072048D027700770077007700F90077003C
:2047A0003D010E02D70137029800A9056A03770077007700AF02C002EC02770077007700BC
:2047C000170377004A03E3007D030204770077001404770044047700270477005F04AC04A1
:2047E00077008F05750537027700600037023702F2051006CA057700770022064106770002
:204800005F06B17BF02902D1F27B012A02D000290CD00EE062495A220A70624A002151708F
:20482000806801225E490AF0DBFD37E2F17B002901D0032076E75A4A0021117080680122A4
:2048400057490AF0CDFDF0E7707B092801D0032068E7B07CFEF75AFD2870707CFEF756FD7A
:204860006870F07B317C000240180E907D210901401AC0B200E0F8E3FEF748FDA8700120AE
:20488000E870032304223F4947480AF005FE45484022017A11430172C7E7B07B012803D05A
:2048A000022804D003203DE704F068FBBDE704F065FB04F021FDB8E7B07B01280ED0022857
:2048C0000FD0032814D03749384B1331052817D006281FD0102827D0032023E704F050FAD8
:2048E000A3E733485A2141730021016101759CE7304900200870FF228A702D49487394E730
:204900002848EF25C27C2A40C274012218460AF067FD8AE723481025C27C2A43C274012241
:2049200018460AF05DFD80E74821164811F007FEFF2003234822134941300AF0ADFDFF2052
:20494000032348220F4989300AF0A6FD6DE7B07B012803D0002807D00320E3E611488022B8
:2049600001791143017160E70E4801794906490E017123980021017090E1B07B01281BD0CB
:204980000320CFE6600700106C720000967800001405001002000010000000103207001048
:2049A0000E00001030030010180D000030710000C80A00105A030010F07CFEF7A7FC2870E5
:2049C000307DFEF7A3FC6870707EFEF79FFCA870B07EFEF79BFCE87010AF387D032301017A
:2049E000FC480818027B8068FB490AF055FDFB48807801288DD1FA481022017A11430172E6
:204A00004CE1F84A2C991C985418FF348134022816D127990120088006222999269811F037
:204A200075FD25992A9808761F98FF21808A013108431F99888221990020C8802073E073DE
:204A400013AB03A904A82C9A04F0DAF8002801D0032067E66946087BFF2809D0322801D9E5
:204A6000322003900323012203A9DF480AF014FD00272C98DB49400146181796FF36213643
:204A800041E010AA107B411C1391D649095C207B431C2373179A8018FF3021300173207BC3
:204AA00007282ED30EF068FB00202073B07BF17B0002401880B20E90CC49884202D1FF2020
:204AC000287006E07D210901401AC0B2FEF71EFC2870307CFEF71AFC6870707CFEF716FCBB
:204AE000A870E07B322809D241004018BE490323491C40181A46B8490AF0CEFCE07B401CAF
:204B0000E0737F1CFFB26846007C8742B9D3B3488078012804D1B2491822087A1043087202
:204B2000B0484078012804D02C9804F0C3F8FF20F8E50020F6E5B27B1392017B914205D266
:204B40001391491ECA0F51184910F1738068A84988421ED1F07B2870002709E07800811994
:204B600040191031401C0222FEF792FC7F1CFFB22878B842F2D810AD287D2A7B0101954802
:204B80000818417B80688B079B0F93490AF084FC84E0289910AD8B079B0F2A7B19990AF050
:204BA0007BFC7BE0027B806803231B990AF074FCA07FA5210840A07701228E481A990AF090
:204BC0000FFC35210422090183480AF0CBFB8249042208460A300746FEF72BFC01E040387E
:204BE000A872A87A4028FAD803230222394682480AF052FC52E0007BB17B800881424ED81A
:204C00002021754811F09BFC00270AE0B80038188119B800103140190422FEF739FC7F1C0E
:204C2000FFB2B07BB842F1D8B07B10AF8006020E387D354601016748032308188068664997
:204C40000AF02AFC387D01016248081880686B49884209D1A87B401CA873032301226848E0
:204C60001B990AF019FC0DE05F495339884209D1A87B401CA8736148032301225B301B99E1
:204C80000AF00AFC56480722017A11430172418C4022114341845B49052088751FE20320D9
:204CA00040E5082258481999FEF7F2FB672003230822554940010AF0EFFBFF202870002000
:204CC00068700120A870E87049480323042242498F380AF0E1FB46494B4801228E39083022
:204CE0000AF040FBEFE3B07B002808D1F07B002805D1307C002802D1707C002801D0032069
:204D000010E50AF00CFADEE304220CA81B99FEF7BFFB10AD287D2F4F0001C01980680422D8
:204D20000CA90AF05DFB287DA9210001C0190089890040188005000E139081003348081867
:204D4000C1690C980AF0ABFA0C90287B284980001F394018032304220CA90AF09DFBB2E3DE
:204D600004220CA81B99FEF793FB10AD287D194F0001C019806804220CA90AF031FB287DF0
:204D800023490001C019008940188005000E139081001E480818816A0C980AF080FA0C9010
:204DA000287B1349800013394018032304220CA90AF072FB87E3B07B5A282BD007490020E6
:204DC000487106490B480122491DCE380AF008FB79E3000018800100600700104404001028
:204DE0003003001014050010470C0000FFFF0000770D0000067200005E030000340900005C
:204E0000DB040000680B00102C090010A40300101A8EFFFFFE485A214171D2E7B07B00280F
:204E20000CD0FC480021017109F03CFBF9490122091DF9480AF0D4FA45E34BE3F5485A21ED
:204E4000017105200007016A0122D20411430162026A012189040A430262E7E704220CA825
:204E60001B99FEF715FB10A8007D04220101EB48081880680CA90AF0B3FA0C980BF01DFCCD
:204E800021E3B07B02280CD0122810D001229203E34910281AD0112846D0132872D00320CE
:204EA00040E40AF0ABFB002884D003203AE423980021C170DB480823828B1A438283DA4A83
:204EC000D17041889A0111434180FCE2D74B0120187305200007056A01239B049D430562C7
:204EE000056A5B009D430562036A93430362026A10231A430262026A20231A430262436A7C
:204F0000FF22013293434362C3699343C361036A134303620020FF220A54401CC0B21828C7
:204F2000FAD309F045FACEE2C04B0220187305200007036A0125AD042B430362036A6D00E7
:204F40002B430362036A13430362026A10239A430262026A20239A430262436AEA12934307
:204F60004362C3699343C361036A93430362002000220A54401CC0B21828FAD309F018FA38
:204F8000A1E2FFE7A948002101739CE2B07B5A280AD09F490020C8729D499F4801220B31AF
:204FA0006E300AF01DFA8EE299485A21C172F3E79F486A46C1891186008A50869D480C9A06
:204FC000816911408161014693480422183195300AF006FA77E2607D5A2801D0032029E4AB
:204FE000B07B002801D0032024E49349BB200870E1200323012280000AF04EFA8F480690BA
:2050000072B6022206A98E480FF0EBF862B65AE2202228218B4811F08BFAB07B282801D950
:205020002820B073B27B8748521C1B9911F06EFA10A8007D010179480818027B8068814937
:205040000AF0CEF93FE2B07B0C2801D90C20B0730C227C481999FEF7ECF9D7200323062223
:20506000784900010AF018FA2DE20CE2B07B092801D0032017E4307C2870707C2F4668709D
:2050800070486B49851CCA7C8270097DC1706848817D3971C07D78716548417E2971807E92
:2050A00068716349674804221C31083011F02EFA5F48213001783973624A811C097851733D
:2050C000017929734079687359482030007A3874FF20032311225B49F9300AF0DDF9F2E127
:2050E000B07B0C2801D0032037E4B07DFEF70EF908A90877707DFEF709F908A94877307DE8
:20510000FEF704F908A98877F07C072821D0FEF7FDF808A9C877B07CFEF7F8F810A9087045
:20512000707CFEF7F3F810A94870F07B317C0002401813907D210901401AC0B2FEF7E6F8D6
:2051400010A988700FA8FEF707FB002805D0032003E4002008A9C877DDE708A9C87F10A964
:20516000C87000200FAD29180A79CA70401CC0B20328F8D310A9C87888700FA80EF017FD9F
:20518000074631480EF013FD0A9002222F490DA80AF0E8F80A98381A00D540426946898E65
:2051A000884201DD042054E45521172007F0D6FC002104200EF066FF07220FA9224811F081
:2051C000A5F92248032307221F4912300AF064F90020052706213A1AAA5C0B1AEA54401CEB
:2051E000C0B20328F7D310AAD07808AAD0770FA80BF0FAF8AA21172007F0B0FC00210520BE
:205200000EF040FF07492322087A104308721FE0440400100E0000103771000018800100B7
:20522000630D001030030010680B0010C80A001014050010580400103C070010BABA0000EA
:20524000C0FF010060070010070000106B030000FE4A9278012A02D1182210430872087AB9
:20526000C02210430872AA200EF001FD09F02CFA29E102220EA81B99FEF70AF96946088FC4
:20528000002803D0FF214131884201D95A200E9002220EA9EE480AF0A3F86946088FC821F0
:2052A0004843E0820FE1EB4D027B13920BA81B99FEF7EEF8E8490B9888420CD810AF387D7F
:2052C0003A7B00014019417B80688B079B0F0BA90AF0E2F8F7E004202AE40322DF48199950
:2052E00011F014F928788007800F13900323012213A9DB480AF0D0F8A878800703D5209826
:205300005A21017002E0209900200870D448032301220C3020990AF0BFF8D4E00027142054
:2053200078438119CD483A011018169110310546042211F0EBF81699281D1531042211F002
:20534000E5F8169928461A310830042211F0DEF8169928461F310C30042211F0D7F87F1C99
:20536000FFB2022FDBD3FDF793F8ACE0B07B012803D000280DD0032092E45A20A077B44840
:20538000012214301A990AF02BF818980188418099E0A07FA5210840A077AD4801221430C3
:2053A0001A990AF01DF88EE00222AC481B99FEF76FF8A74D02221535A84928460AF010F8D2
:2053C00002222946189809F0CDFF7CE004220CA81B99FEF75DF80C98411C0AD0A149884202
:2053E00011D80E909A4802220EA9783009F0F8FF69E00020C0430E90954802220EA9783067
:2054000009F0EEFF5FE003204AE49748807B1590012803D000280AD0032041E45A20149033
:205420008B48012214A97A3009F0DAFF4BE01D980022411C149132548548012214A97A305C
:2054400009F0CEFF3FE08848807B15905A2803D000280BD0032023E45A251495012214A96D
:20546000824809F0BDFF249805722CE01D990025481C14907554012214A97C4809F0B0FF76
:20548000249805721FE0092925D00A2923D005292ED006292CD012292AD0172928D0027B4C
:2054A00013926E481B9911F031F810A8007D10AD010168482A7B0818417B80688B079B0F6A
:2054C000664909F0E9FF129850287DD027DC8107890F14D005E1B17B1391007B884200D2F9
:2054E000139010A8027B5D48199911F00FF8DCE7027B139259481B99FDF7CAFFD5E7801032
:20550000C01E5B4D030011F0EEFC111D2029EC2F6B838BECC3ECECECECECEC2CEC00B828DD
:2055200010D008DC5C2810D060280ED064280CD0902809D1BEE0DC2807D0E0286FD0F0280B
:2055400002D10BE006F069FECBE0D32140220901484809F007FF06F0B7F8C2E009F073FDE6
:20556000BFE00BF011F8BCE00BF002FE0DF0ADFD0021C5220120327002227070207D40237B
:2055800018430323B070F1700521327173711120B071394DAC7AF471092731723248042286
:2055A0000930364910F0B2FF77730A220F211491B273687A2E2801D1002C0BD0FF220A2115
:2055C000199810F0B5FF00E071E019202299C877FF2065E40A222A49199810F097FFF2E7DB
:2055E00004229101254809F0BDFE244900208880FF200222091D053009F0F2FE1348807863
:2056000001286ED11F481822017A1143017268E00F490122BC391C4809F0A4FE61E04FE018
:205620000A4C312101228901A01C09F09BFE01221649681D09F096FEA078012851D1114877
:205640001822017A114301724BE0000044040010F271000018800100FFE0F50560070010FF
:2056600065030000FFFF0000140500109678000014000010EC0800102C09001024030010E9
:205680007B0D0010300300100F000010410C000001221549281D09F065FE14488078012824
:2056A0001FD113481822017A1143017219E009F00BF816E00F48012182780A43827010E096
:2056C0009721012209010C4809F04CFE0A4801220A49401C09F046FE05482022017A11438F
:2056E000017200207BE40000717200004404001030030010920C00107C0300107109000083
:20570000FFB583B00E46144614235F22FA49039803F017FBFF2813D014214843F6494518F3
:20572000A8798207920F8708BF00F44806994118FF3121318978914215D2022A03D004E07C
:20574000012007B0F0BD012901D00220F9E7EC4A12785A2A07D0012C03D1202F01D0022069
:20576000EFE7022C05D0012C05D0022C77D00320E7E70220E5E7012E0BD0E04C0122E11DA3
:20578000FF31FA31E034022E07D0032E68D00320D7E7039803F079F9F9E16E7B2B7B02934B
:2057A000D648C4230370D54A01205070087D40210843114688700020C870082F51D00C2F06
:2057C00071D0282F07D02C2F05D0F008052708710D2869D0DEE0B3079B0FA968C948029A3F
:2057E00009F040FEC54D0120287102206871A871E8710920287202206872C2480079FDF703
:2058000091FDA8720020E87206202873BD48C0786873BC488078A873BA484078E873B94860
:2058200000782874092068740220A874B548407AFDF778FDE8740020287506206875B148DC
:20584000007AA875AF48C079E875AE4880792876AC481A21427908466A76E177B5E0D1E0E1
:20586000B5E00220A54D05212871072006266871A971E81D0422A449FDF70AFEEE72A3481B
:20588000FDF788FD009028460C3004226946FDF7FFFD0320112128749D48C079020704D59F
:2058A00000226A7403E01FE070E001226A741622AA74800702D50020E87401E00120E87427
:2058C00029759348203000786875AA759148C078E8751220287689488D49193002220A31FE
:2058E000FDF7D6FD1B2070E0844D022028710920062668711227AF71E81D02228649FDF757
:20590000C7FD6F72844928460A3002224C31FDF7BFFD2E7381480422807881007E4809182C
:20592000284614310D30FDF7B3FD112000270621421CD6B22954A819FF22042110F0F8FDF5
:20594000361DF0B27F1CFFB2042FF0D30621421CD6B229547148704F807804228000C11996
:205960000831A819FDF794FD361DF0B21221421CD6B229546948022280784000C1194431C1
:20598000A819FDF785FDB61CF0B21EE05B49029806274871B3079B0FA9685A48029A09F08E
:2059A00061FD700708D55748FDF7F4FC009069465448029A10F0AAFD50485249C019029AEC
:2059C000FDF766FD02983818C0B2E077DFE0082F01D30320B5E6C423037002234270097D7E
:2059E0004022114381700021C170037143710F218171297CC171162101726A7C0A2142721E
:205A0000E177C4E0022E01D003209AE60446012906D0A87B0007000F800704D4032090E66B
:205A2000A87B0009F8E72E7B344932460E313548FDF72EFD687B324683079B0F3149A868C9
:205A400009F02AFD7D26F600242F3ED004DC042F07D0202F07D107E0282F71D02C2F02D16E
:205A60006EE006F026FC92E02D4C0222214601A809F078FC684682882A480A3A824200D32F
:205A800001960323022201A9204609F005FD6A460A21908810F010FD019011F017F8224A0D
:205AA000224B10F0F7FE0022214B10F05BFF11F045F8000A00901F49E5238B621E4A10628D
:205AC0008B621062DC20886261E0154C1B48A41C02222146054609F045FC18480C388189FE
:205AE000B14202D20F4953398181032302222946204609F0D1FC4AE07888010014050010C0
:205B00000E0000106007001024030010800200103003001044040010480A0010A403001073
:205B20006D0300004106000039B4C876BE9FF63F000E123F80410050404000508C03001012
:205B4000E07CFDF7E3FB134E3071A07DF070E07DB070207E7070607E3070207FFDF7D6FBBB
:205B60007072E07F30720C480178F1714178B17180787071687B0A2283079B0F3146A86895
:205B800009F08AFC0548C022017A114301720020D7E5000060070010340500103003001036
:205BA000FFB583B00E461546142312226A49039803F0C7F8FF2811D0142148436649401815
:205BC00081798C07A40F654F06997918FF3121318978A14204D2022007B0F0BD0120FBE7DC
:205BE000012D01D00320F7E700220221012E0AD9C42401233C707B70594B40241B7D2343A5
:205C0000BB700424FA70012E09D0544DE035022E09D0032E31D0052E46D00320DCE7039804
:205C200002F033FF95E0467B017B0291F1082246641CE4B2B9540D2904D12246641C0299E9
:205C4000E4B2B954B30781689B0F4648029A09F009FC700708D54348FDF79CFB019001A987
:205C60004048029A10F052FC38193E49029AFDF70FFC02982018E8776BE0621CD2B2395533
:205C8000531CDBB2B9540F22591CC9B2FA54037C4A1CD2B27B541623511CC9B2BB54407C68
:205CA0004B1C7854EB7754E02E4E0021317081680522C91C701C09F055FB0921601CC0B2FB
:205CC00039550C21421CD4B239547079FDF72AFB7D2109014018020A611CC9B23A554A1C9D
:205CE000D4B278543079FDF71DFB2246641CE4B2B854F078FDF716FB0146601CC0B23955E3
:205D0000FF22411CCCB23A54B078FDF70BFB2146641CE4B278547078FDF704FB0146204606
:205D2000641CE4B239543078FDF7FCFA611CC9B23855FF22481CC0B27A548022411CC9B26A
:205D40003A540022481CC0B27A540021421C3954EA77002040E70000E48F0100140500109E
:205D60001407001060070010FFB595B0144600260020079010231322FE49159802F0E1FF23
:205D8000FF2816D00101FB480818149081798807800F0C90890889000A91F749189A8918F1
:205DA0001391FF3121318978814204D2022019B0F0BD0120FBE71898EF4A40001190801826
:205DC000FF300A9901301290102913D0149887680A982C282FD00025E848290109188A68E0
:205DE000BA4203D06D1CEDB2222DF6D3222D3AD30320DCE7E0494878012810D01298868BA5
:205E00000020DF490C2242438A5AB24203D0401CC0B21E28F6D31E2806D30320C7E7C87CCB
:205E200000020E7D0643EBE70C22504340184768007A0A90CCE70025D248290109188A68AF
:205E4000BA4203D06D1CEDB2042DF6D3042D01D30320ACE7290142580192081841680291E3
:205E6000407B099007E0290142580192081841680291407B09900222394608A809F072FA28
:205E80006846018C0998814201D909980890012207A8029909F066FA012C01D0032086E7FC
:205EA0001698B94C02280CD90021C423B248012203704270227D40231A43827004220C92C1
:205EC000C170AD491698E0311091030011F00BF80DFD080CFDFCFDFDFBFAFDFDF9F8FD0046
:205EE000159802F0D2FD7BE3A348A34A4178189840008018FF3021300F90012918D00F98E5
:205F00001146C0884A79030A9A4203D18A79C3B29A426ED0401E0F9A80B2D0804A79030A77
:205F20009A4203D18979C0B28142F2D003203EE71298072790490780189806225043401875
:205F4000FF300730159910F0E1FA13981699FF3001300176129886838C491198FF22401877
:205F6000818A0132114381820F980026C6800A988107890F5DD18010030010F0B4FF105AD9
:205F8000090F145A353B41484C543B5A5A1D2A5A03206072A672E77227734AE00220607234
:205FA000A672E07245E004206072A6720620E0722073032060733CE00A206072A672E772BA
:205FC00027736773A773E77327746774A774E7742FE06772A6720120E07220736073A07301
:205FE0000320E073207424E002206072A672E6721FE03AE102206072A6720420E07218E09B
:2060000003206072A672E7720520207311E001206072A6720DE003206072A6720420E072F6
:206020000520207305E003206072A672E772022020730A982C280DD0504829010818007B78
:206040002072099806904C4D287B00280CD0012806D00FE04B4829010818007B2072F0E788
:206060001099C97F202905D86946088CA080888BE080FAE0012801D0032098E6687B802833
:2060800009D0149880798008042845D02220295C092947D142E0E87DFDF738F93C4F3870C9
:2060A000A87DFDF733F97870687DFDF72FF9B870287DFDF72BF9F870E87CFDF727F905E008
:2060C000FEE2DAE2BEE2A3E28BE21BE33871A87CFDF71CF9787138460DF069FD0490E87FF9
:2060E000FDF714F93870A87FFDF710F97870687FFDF70CF9B870287FFDF708F9F870E87E79
:20610000FDF704F93871A87EFDF700F9787138460DF04DFD039068E03520B8E72D18A87BED
:20612000092801D0032042E6687AFDF7EFF818490870287AFDF7EAF815494870E879FDF799
:20614000E5F8134988706879FDF7E0F81049C8702879FDF7DBF80E490871A878E978000215
:2061600040187D273F01C01BC0B2FDF7CFF8084948710FE04C91010014050010789E0100C4
:206180007C9201008CA4010014070010300300106007001008460DF00AFD0490E87DFDF79B
:2061A000B5F8FE490870A87DFDF7B0F8FB494870687DFDF7ABF8F9498870E87CFDF7A6F80A
:2061C000F649C870A87CFDF7A1F8F4490871287C697C00024018C01BC0B2FDF797F8EF49F6
:2061E000487108460DF0E3FC0390A680E6800025002736E06846808B002802D0401E079093
:2062000002E00698401E07906946207A898B0622484301994118E14809F0A4F8DF480DF024
:20622000C6FC0499884213D30399884210D8002D0AD1552568460699808B491E884202DA1A
:20624000401CE08000E0E680A088401CA08006E0002D02D10499884207D3552D05D0781C86
:2062600087B26946098C8F42C4D30CA80090A0880BAB0121189A02F028FCFF2803D0002013
:206280000E90C74E9AE1002091E508A8017C0222481CC0B27254617A421C0C9231540A984F
:2062A00038281CD00A9804283ED00F98E188C088091809980818A188401A401E099910F0F9
:2062C00011F988B20790227A1146414301980918B24809F047F8002500200D9065E10F98B1
:2062E000E188C088091809980818A188401A401E099910F0F7F888B2079014998F89149956
:206300008D7B217A0622414301980918A34809F029F86B46207A998B2A464843C1199F4844
:20632000801D09F01FF8D6E70F98E188C088091809980818A188401A401E099910F0D2F86C
:2063400088B2079014998D89217A0622414301980918924809F006F86B46207A998B042242
:20636000484341198D48801D08F0FCFF6B46207A998B243548434119884804220A3008F0FE
:20638000F1FFA8E70D983018FF30FF300230807A030010F0A8FD08057B8FA3B7C5DD626189
:2063A00008AA117C0923481CC0B273540C21431C0C933154794847197879FCF7B3FF7D21D0
:2063C0000901401884466046030A08AA107C411CC9B233544B1C60460C9370543879FCF72D
:2063E000A1FF08AA117C4B1C0C937054F878FCF799FF08AA117C4A1CD3B27054FF20591C77
:206400000C91F054B878FCF78DFF08AA117C4B1C0C9370547878FCF785FF08AA117C4B1CD6
:206420000C9370545D48405DFCF77CFF08AA137C591CC9B2F05400204A1CD3B27054802164
:206440005A1CD7B2F154791CC9B2F05501204B1C0C937054AD1DEDB29EE008AB187C062163
:20646000421C0C9231544D484019FCF793FF059008AB187C0422301805A9FDF709F808AB88
:20648000187C001D0C902D1DEDB285E008A8007C0621421CD2B20C92315440484119B0185F
:2064A0000422FCF7F5FF08AB187C001D0C902D1DEDB271E008AB187C0521421CD2B20C92A8
:2064C000315436484119B0180422FCF7E1FF08AB187C001D0C902D1DEDB25DE008A8007C4C
:2064E0001221421CD2B20C9231542C484119B0180222FCF7CDFF08AB187C801C0C90AD1CA3
:20650000EDB249E008A8017C1122481CC0B272542249421C495D0C9231546D1CEDB23BE0E2
:2065200008A8017C0922481CC0B272540A21421CD2B20C92315419484119B0180A220FF089
:20654000E5FF08AB187C0A300C900A35EDB223E008A8007C0D22411CC9B232540822481C12
:20656000C0B272540D4F79198B78421CD2B233544B78501CC0B2B354421C7B5DD2B20C9289
:206580003354B018C91C0522FCF782FF08AB187C401D0C900835EDB20D9803E06007001011
:2065A00014050010401CC0B20D90617A0D98814200D9E7E60E98401CC0B20E9008A9097B17
:2065C0000E98884200D260E671783046022903D108A9097C0A39417208A8017C1098C1779C
:2065E0008EE008A8017C0623481CC2B2464843540024511CC9B284544A1CD2B24454511C07
:20660000C9B284544B1C0C9344541098C37777E008A8017C0623481CC2B23B4843540023E5
:20662000511CC9B283544A1CD2B2435469460C8C230A511CC9B283544B1C0C9344541098A1
:20664000C3775DE008A8017C0623481CC2B22E4843540023511CC9B283544A1CD2B2435425
:2066600009990B0A511CC9B283540C46491C099A0C9102551098C17742E00A9814281DD188
:20668000F01FFD381AD008AB187C0622411C1E4C0C91225402990422491C1C4808F062FEA1
:2066A00008AB187C042220181849FCF7F1FE08AB187C001D0C901099C87721E0032036E4CC
:2066C00008AB187C0622104C411CC9B222540022481CC0B26254411C0C91225402223946E0
:2066E0000A4808F03FFE08AB187C022220180749FCF7CEFE08AB187C801C0C901099C877FA
:20670000002014E4032012E41405001060070010FFB583B00C4615461E46072301227E499C
:20672000039802F00EFBFF2810D0C100081A7A49401880798007800F78498A19FF322132C7
:206740009278824204D2022007B0F0BD0120FBE728467D273F010026714D012803D00228B0
:206760004CD00320F0E7012C03D0022C05D00320EAE7039802F089F9CBE0C4200C460870A4
:206780000120607067484021007D0843A070E670092020710C2060716879FCF7C3FDC019A6
:2067A000010AA171E0712879FCF7BCFD2072E878FCF7B8FD6072A87900281AD0FCF7B2FDDD
:2067C000A072A878FCF7AEFDE0726878FCF7AAFD20732878FCF7A6FD6073FF20A0738020AF
:2067E000E07326740221122061744C49E031C8778FE00720FCF796FDA072E2E7022C01D0A7
:206800000320A1E7487B092801D003209CE70C46887DFCF77BFD69460871607DFCF776FD35
:2068200069464871207DFCF771FD69468871E07C07281ED0FCF76AFD6946C871A07CFCF780
:2068400065FD69460872607CFCF760FD69464872E07B217C00024018C01BC0B2FCF756FD33
:206860006946887201A8FCF777FF002804D003206AE76846C671E1E75521172006F06EF936
:20688000002104200DF0FEFB68460079287068464079687068468079A8706846C079A87100
:2068A0006846007AE8706846407A28716846807A6871032307221A491B4808F0EDFD01A836
:2068C00009F092FDAA21172006F048F9002105200DF0D8FB15492322087A10430872144A91
:2068E0009278012A02D1182210430872087AC02210430872488C1022104348840B490222BB
:2069000022310C4808F06CFDAA200DF0B0F907F0DBFE002018E70000E4930100140500106F
:2069200007000010140700107D030000300300104404001050710000FFB589B014461D468F
:206940000020019007230122CA49099802F0F9F9FF2811D0C100081AC649401880798007CF
:20696000800F0690C44A5119FF3121318978814204D202200DB0F0BD0120FBE7BE4B6F0057
:20698000FE1806206843C0185B19FF330133F11D0893BA4BFF30FF36F93107302136FF187D
:2069A000012C03D0022C7DD00320E3E70A9B012B03D0022B05D00320DCE7099802F065F8F3
:2069C000B0E014465278012A05D0A079B179884211D00320CEE70B220A80062209990FF0BD
:2069E00095FD08990A980876B88AFF2101310843B8820020F0800122A14901A808F0B2FC3F
:206A000068460079642801D96420019006A80090684604AB2A460521007902F056F8FF28C3
:206A200011D06846007C254681004018C2B2F0881921401E48439249891D4118914808F04D
:206A400091FC002455E0002094E76F463A7E0221501CC0B2A9540322411CC9B22A5412229B
:206A6000481CC0B26A540021421CD2B22954A0002018844E511C335CC9B2AB5409234A1C50
:206A8000D2B26B540523511CC9B20691AB5486197078FF2835D0FCF745FC7D210901401826
:206AA000070A00E040E06946097E4A1CD2B26F54531C0693A854B078FCF734FC69460A7E5C
:206AC000531C0693A854F078FCF72CFC69460A7E511CC9B2A854FF204A1CD2B2685411211D
:206AE000501CC0B2A9543279431C06932A54641CE4B26846007C8442A7D36878022808D038
:206B00000BE0FF23481CC0B26B54421C06922B54D1E76846007E0A3868726846017E564893
:206B2000E030C177002025E70A9B022B01D0032020E7514B504A5C195278FF348134022A8B
:206B400011D10B220A80062209990FF0DFFC08990A980876B88AFF2101310843B8820020FE
:206B6000F0802073E07305AB2A4602A903A802F047F8002801D00320FCE66846007AFF28CB
:206B800009D0642801D9642002900323012202A93B4808F081FC00273749680146180796A9
:206BA000FF3621364AE06A46107D411C05913249095C207B421C2273079A8018FF302130C8
:206BC0000173207B0E2837D30CF0D6FA002020732C48317C0170F07C317D0002401880B2AF
:206BE0002949884203D12749FF20487007E07D210901401AC0B2FCF789FB22494870707D5C
:206C0000FCF784FB1F498870B07DFCF77FFB1D49C8701C48717E0171E07B642809D2810062
:206C2000411817480323801D08180522154908F033FCE07B401CE0737F1CFFB26846007B8E
:206C40008742B0D30D480322017A11430172418C4022114341840D49052088750648407866
:206C6000012804D0284602F025F8FF2082E6002080E60000EB9301001405001030030010A2
:206C8000D604000060070010FFFF0000680B0010FFB583B00D4614461F4607230122724921
:206CA000039802F04EF8FF280DD06F4880798107890F6E48C219FF32213292788A4204D26C
:206CC000022007B0F0BD0120FBE72246674C08212646FF34FF34E0360234012A08D063491A
:206CE0000F310291022A23D0032A2DD00320E8E7012D03D0072D05D00320E2E7039801F004
:206D0000C4FEAFE0C423012203704270227D40231A4382700022C2700A22027141711921C3
:206D2000801D0822490108F01DFB0E20F07799E0072D01D00320C4E7192003230822400187
:206D4000029908F0A9FB8DE0012D03D0022D77D00320B6E746497A005518297D09066DD4EC
:206D6000017B012906D1417B092903D13F48807B102801D00320A4E705200007006A7A018A
:206D800081033A481718FF30F3300190002929DA384800785A2825D0312110220901019819
:206DA00008F0E0FA102202990198FCF747F93846FF30A330102202990FF0CCFB01214902E8
:206DC00000280CD0A078032807D2401CC0B2A070032802D3A88A0843A882032071E7A88A61
:206DE0008843A882A88A80210843A8825A2060750021A170C7231D48012203704270237D9E
:206E0000402423438370C17002714171092181711021C1713946FF3193310C461022019850
:206E2000FCF7F4F811482146083010220FF06EFB1820F077FF2044E702E0FFE7032040E7E6
:206E4000017B012905D1417B092902D1807B102801D0032035E7312003231022000102996D
:206E600008F01AFB00202CE7F293010014050010300300100E000010FFB58FB00D46144622
:206E80000020019007230122FE490F9801F059FFFF2812D0C100081AFA49401880798007B6
:206EA000800F0690F849129A8918FF3121318978814204D2022013B0F0BD0120FBE71298C4
:206EC000F14F4300DE199C4606235843C019129BF11DFF18FF3701370E97FF30FF36EB4F36
:206EE000EA1EF931073021366744012C03D0022C7ED00320DFE7062A18D8E34A5378012B7E
:206F000005D09079B179884210D00320D3E714220A8006220F990FF0F9FA0E980576B88AFD
:206F2000FF2101310843B8820020F080D648C4220346C11DE0330D93D63BFF310B300C93F1
:206F4000FA310B902B000FF0CEFF0BFE070B2FFDFC0B2FFDFCFBFE000F9801F096FDADE24B
:206F60000024C948012302704370097D402211438170C47009210171062106914171022DF7
:206F80000BD0801D0622C24908F0ECF96946087E801D06900D99C877E1E74D21801D062221
:206FA000090108F0DFF9F1E7032D2AD0B8490122C91D01A808F0D6F9684600790C2801D946
:206FC0000C20019006A80090684604AB05210079129A01F07AFDFF283BD06846007C0E211B
:206FE0004843C2B2F0884621401E4843992100E0BCE209014118A74808F0B4F90025A24C88
:2070000097E00122A44901A808F0ACF9684600790C2801D90C20019006A80090684604AB16
:2070200005210079129A01F050FDFF280FD06846007C0E214843C2B2F0884621401E4843A1
:207040006D2109014118934808F08CF9D6E7002031E700202FE76B46197E0222481CC0B27A
:2070600062540322411CC9B222540922481CC0B262540621421CD2B2069221540E2085491E
:2070800068434718A018062239460FF03FFA6B46187E801DC0B20922411CC9B222540C2252
:2070A000481CC0B26254FF26411CC9B22654481C06906654B879FCF735F96B46197E4A1C19
:2070C00006926054F879FCF72DF96B461A7E511CC9B2A054481CC0B26654411CC9B22654D3
:2070E000481CC0B26654411CC9B22654481CC0B266548022411CC9B2225400204A1CD2B224
:207100006054511CC9B2A05409204A1CD2B260540621501CC0B20690A15439460831201898
:2071200006220FF0F3F96B46187E801D06906D1CEDB26846007C85428DD36078022803E064
:20714000BDE1C7E020E00FE219D16846007E0A38C2B203927F2A11D94E480C990FF0D6F9FC
:20716000812060726846027BA2726B46187E401C069048490B980FF0C9F900E062726846CD
:20718000017E0D98C17799E1042D28D040490122083101A808F0E6F8684600790C2801D957
:2071A0000C20019006A80090684604AB05210079129A01F08AFCFF283AD06846007C0D212C
:2071C0004843C2B2F088401E810140183049B4314118304808F0C6F800242B4E6AE09B2178
:2071E0000122C90001A808F0BDF8684600790C2801D90C20019006A80090684604AB05219A
:207200000079129A01F061FCFF280FD06846007C0D214843C2B2F088401E81014118EF20DE
:20722000C00009181B4808F09DF8D5E7002042E6002040E66946087E0222411CC9B232547C
:207240000822481CC0B272540922411CC9B232540622481CC0B2069072540D2125460D4F90
:207260004D43E91930180FF051F96B46187E801D069000206F463B7E1122591CC9B2F2547A
:207280002B180BE0F993010014050010300300108409000060070010D7040000FA4A9A18F2
:2072A00093794A1C06927354401CC0B20728E1D3641CE4B26846007C8442BBD370780228A6
:2072C00003D16846007E0A3870726846017E0D98C177F3E0052D25D00122EC4901A808F08D
:2072E00041F868460079082801D90820019006A80090684604AB01210079129A01F0E5FBB8
:20730000FF2834D06846007CE1494007020EF088401E40014118DC4808F024F80020079038
:20732000DC4CA5E00122DC4901A808F01BF868460079082801D90820019006A800906846CE
:2073400004AB01210079129A01F0BFFBFF280CD06846007CD1494007020EF088401E4001D7
:207360004118C94807F0FEFFD8E70020A3E50020A1E56D46287E0222411CC9B22254481C73
:20738000C0B262541122411CC9B22254BE4A481C1378C0B263540123411CC9B2069123541A
:2073A00050780A2801D90A20507053784D1C06956354002554E06F46397E0222481CC0B2CA
:2073C00062540322411CC9B222540922481CC0B262540422411C0691225468002918CE18AE
:2073E000B078FBF79FFF397E4A1C06926054F078FBF798FF3A7E511CC9B2A054FF22481C62
:20740000C0B26254411CC9B222540922481CC0B262540621421CD2B221540021501CC0B2C2
:20742000A154421CD2B221540A23501CC0B2A354421CD3B2215464205A1CD7B2E054FF20D0
:207440007A1CD3B2E05512205A1CD7B2E054781CC0B2E1553179431C069321546D1CEDB2FC
:20746000894B5878A842A6D80798401CC0B207906946097C0798884200D27AE7607802282A
:2074800018D16846007E0A38C2B203927F2A10D97D480C990FF03AF8812060726B461A7BA6
:2074A000A272187E401C069077490B980FF02EF800E062726846017E0D98C17723E30025BF
:2074C000744C012022706070087D40210843A070E570092020710C2106200690617113212A
